{
  "contractName": "Fundraising",
  "abi": [
    {
      "inputs": [
        {
          "internalType": "contract Pitch",
          "name": "_parentContract",
          "type": "address"
        },
        {
          "internalType": "string",
          "name": "_identifier",
          "type": "string"
        },
        {
          "internalType": "uint256",
          "name": "_goal",
          "type": "uint256"
        },
        {
          "internalType": "uint256",
          "name": "_deadline",
          "type": "uint256"
        },
        {
          "internalType": "uint256",
          "name": "_minimumAcceptingContribution",
          "type": "uint256"
        },
        {
          "internalType": "address",
          "name": "_owner",
          "type": "address"
        }
      ],
      "stateMutability": "nonpayable",
      "type": "constructor"
    },
    {
      "anonymous": false,
      "inputs": [
        {
          "indexed": false,
          "internalType": "address",
          "name": "sender",
          "type": "address"
        },
        {
          "indexed": false,
          "internalType": "uint256",
          "name": "value",
          "type": "uint256"
        }
      ],
      "name": "ContributeEvent",
      "type": "event"
    },
    {
      "anonymous": false,
      "inputs": [
        {
          "indexed": false,
          "internalType": "string",
          "name": "_description",
          "type": "string"
        },
        {
          "indexed": false,
          "internalType": "address",
          "name": "_recipient",
          "type": "address"
        },
        {
          "indexed": false,
          "internalType": "uint256",
          "name": "_value",
          "type": "uint256"
        }
      ],
      "name": "CreateRequestEvent",
      "type": "event"
    },
    {
      "anonymous": false,
      "inputs": [
        {
          "indexed": false,
          "internalType": "address",
          "name": "recipient",
          "type": "address"
        },
        {
          "indexed": false,
          "internalType": "uint256",
          "name": "value",
          "type": "uint256"
        }
      ],
      "name": "MakePaymentEvent",
      "type": "event"
    },
    {
      "inputs": [],
      "name": "admin",
      "outputs": [
        {
          "internalType": "address",
          "name": "",
          "type": "address"
        }
      ],
      "stateMutability": "view",
      "type": "function"
    },
    {
      "inputs": [],
      "name": "amountRaised",
      "outputs": [
        {
          "internalType": "uint256",
          "name": "",
          "type": "uint256"
        }
      ],
      "stateMutability": "view",
      "type": "function"
    },
    {
      "inputs": [
        {
          "internalType": "address",
          "name": "",
          "type": "address"
        }
      ],
      "name": "contributors",
      "outputs": [
        {
          "internalType": "uint256",
          "name": "",
          "type": "uint256"
        }
      ],
      "stateMutability": "view",
      "type": "function"
    },
    {
      "inputs": [],
      "name": "deadline",
      "outputs": [
        {
          "internalType": "uint256",
          "name": "",
          "type": "uint256"
        }
      ],
      "stateMutability": "view",
      "type": "function"
    },
    {
      "inputs": [],
      "name": "goal",
      "outputs": [
        {
          "internalType": "uint256",
          "name": "",
          "type": "uint256"
        }
      ],
      "stateMutability": "view",
      "type": "function"
    },
    {
      "inputs": [],
      "name": "minimumAcceptingContribution",
      "outputs": [
        {
          "internalType": "uint256",
          "name": "",
          "type": "uint256"
        }
      ],
      "stateMutability": "view",
      "type": "function"
    },
    {
      "inputs": [],
      "name": "name",
      "outputs": [
        {
          "internalType": "string",
          "name": "",
          "type": "string"
        }
      ],
      "stateMutability": "view",
      "type": "function"
    },
    {
      "inputs": [
        {
          "internalType": "uint256",
          "name": "",
          "type": "uint256"
        }
      ],
      "name": "requestlist",
      "outputs": [
        {
          "internalType": "string",
          "name": "description",
          "type": "string"
        },
        {
          "internalType": "address payable",
          "name": "receipient",
          "type": "address"
        },
        {
          "internalType": "uint256",
          "name": "value",
          "type": "uint256"
        },
        {
          "internalType": "uint256",
          "name": "noOfVoters",
          "type": "uint256"
        },
        {
          "internalType": "bool",
          "name": "completed",
          "type": "bool"
        }
      ],
      "stateMutability": "view",
      "type": "function"
    },
    {
      "inputs": [
        {
          "internalType": "uint256",
          "name": "",
          "type": "uint256"
        }
      ],
      "name": "requests",
      "outputs": [
        {
          "internalType": "string",
          "name": "description",
          "type": "string"
        },
        {
          "internalType": "address payable",
          "name": "receipient",
          "type": "address"
        },
        {
          "internalType": "uint256",
          "name": "value",
          "type": "uint256"
        },
        {
          "internalType": "uint256",
          "name": "noOfVoters",
          "type": "uint256"
        },
        {
          "internalType": "bool",
          "name": "completed",
          "type": "bool"
        }
      ],
      "stateMutability": "view",
      "type": "function"
    },
    {
      "inputs": [],
      "name": "totalContributors",
      "outputs": [
        {
          "internalType": "uint256",
          "name": "",
          "type": "uint256"
        }
      ],
      "stateMutability": "view",
      "type": "function"
    },
    {
      "inputs": [],
      "name": "totalVotes",
      "outputs": [
        {
          "internalType": "uint256",
          "name": "",
          "type": "uint256"
        }
      ],
      "stateMutability": "view",
      "type": "function"
    },
    {
      "inputs": [],
      "name": "acceptsUntil",
      "outputs": [
        {
          "internalType": "uint256",
          "name": "",
          "type": "uint256"
        }
      ],
      "stateMutability": "view",
      "type": "function"
    },
    {
      "inputs": [],
      "name": "contribute",
      "outputs": [],
      "stateMutability": "payable",
      "type": "function"
    },
    {
      "inputs": [],
      "name": "currentBalance",
      "outputs": [
        {
          "internalType": "uint256",
          "name": "",
          "type": "uint256"
        }
      ],
      "stateMutability": "view",
      "type": "function"
    },
    {
      "inputs": [],
      "name": "getRefund",
      "outputs": [],
      "stateMutability": "nonpayable",
      "type": "function"
    },
    {
      "inputs": [
        {
          "internalType": "string",
          "name": "_description",
          "type": "string"
        },
        {
          "internalType": "address payable",
          "name": "_recipient",
          "type": "address"
        },
        {
          "internalType": "uint256",
          "name": "_value",
          "type": "uint256"
        }
      ],
      "name": "createRequest",
      "outputs": [],
      "stateMutability": "nonpayable",
      "type": "function"
    },
    {
      "inputs": [
        {
          "internalType": "uint256",
          "name": "_index",
          "type": "uint256"
        }
      ],
      "name": "voteRequest",
      "outputs": [],
      "stateMutability": "nonpayable",
      "type": "function"
    },
    {
      "inputs": [
        {
          "internalType": "uint256",
          "name": "_index",
          "type": "uint256"
        }
      ],
      "name": "makePayment",
      "outputs": [],
      "stateMutability": "payable",
      "type": "function"
    },
    {
      "inputs": [],
      "name": "Viewprojectname",
      "outputs": [
        {
          "internalType": "string",
          "name": "",
          "type": "string"
        }
      ],
      "stateMutability": "view",
      "type": "function"
    },
    {
      "inputs": [],
      "name": "thegoal",
      "outputs": [
        {
          "internalType": "uint256",
          "name": "",
          "type": "uint256"
        }
      ],
      "stateMutability": "view",
      "type": "function"
    },
    {
      "inputs": [],
      "name": "minimumAccepting",
      "outputs": [
        {
          "internalType": "uint256",
          "name": "",
          "type": "uint256"
        }
      ],
      "stateMutability": "view",
      "type": "function"
    },
    {
      "inputs": [],
      "name": "seeowner",
      "outputs": [
        {
          "internalType": "address",
          "name": "",
          "type": "address"
        }
      ],
      "stateMutability": "view",
      "type": "function"
    },
    {
      "inputs": [],
      "name": "amounttill",
      "outputs": [
        {
          "internalType": "uint256",
          "name": "",
          "type": "uint256"
        }
      ],
      "stateMutability": "view",
      "type": "function"
    }
  ],
  "bytecode": "0x60806040523480156200001157600080fd5b506040516200123f3803806200123f833981016040819052620000349162000156565b8451620000499060079060208801906200009e565b5060058490556200005b834262000279565b600455600391909155600180546001600160a01b039283166001600160a01b0319918216179091556009805496909216951694909417909355506200030c915050565b828054620000ac90620002a0565b90600052602060002090601f016020900481019282620000d057600085556200011b565b82601f10620000eb57805160ff19168380011785556200011b565b828001600101855582156200011b579182015b828111156200011b578251825591602001919060010190620000fe565b50620001299291506200012d565b5090565b5b808211156200012957600081556001016200012e565b80516200015181620002f3565b919050565b60008060008060008060c087890312156200017057600080fd5b86516200017d81620002f3565b602088810151919750906001600160401b03808211156200019d57600080fd5b818a0191508a601f830112620001b257600080fd5b815181811115620001c757620001c7620002dd565b604051601f8201601f19908116603f01168101908382118183101715620001f257620001f2620002dd565b816040528281528d868487010111156200020b57600080fd5b600093505b828410156200022f578484018601518185018701529285019262000210565b82841115620002415760008684830101525b809a505050505050506040870151935060608701519250608087015191506200026d60a0880162000144565b90509295509295509295565b600082198211156200029b57634e487b7160e01b600052601160045260246000fd5b500190565b600181811c90821680620002b557607f821691505b60208210811415620002d757634e487b7160e01b600052602260045260246000fd5b50919050565b634e487b7160e01b600052604160045260246000fd5b6001600160a01b03811681146200030957600080fd5b50565b610f23806200031c6000396000f3fe6080604052600436106101405760003560e01c806352376c6e116100b6578063b2d5ae441161006f578063b2d5ae4414610345578063ce845d1d1461035a578063d7bb99ba1461036d578063f251fc8c14610375578063f6c709141461038b578063f851a440146103a057600080fd5b806352376c6e1461029e5780635aae6522146102b45780637b3e5e7b146102c957806381d12c58146102df5780638e9eb45f14610310578063a058d0fd1461033057600080fd5b80631f6d4942116101085780631f6d4942146101e05780632807b4a31461020d57806329dcb0cf1461023f57806340193883146102555780634cb6f4a51461026b5780635114cb521461028b57600080fd5b80630665ab701461014557806306fdde03146101705780630d15fd77146101855780631b16bb5c146101a95780631c8dc67e146101cb575b600080fd5b34801561015157600080fd5b5061015a6103c0565b6040516101679190610d7f565b60405180910390f35b34801561017c57600080fd5b5061015a610452565b34801561019157600080fd5b5061019b60085481565b604051908152602001610167565b3480156101b557600080fd5b506101c96101c4366004610c4e565b6104e0565b005b3480156101d757600080fd5b5060055461019b565b3480156101ec57600080fd5b5061019b6101fb366004610c2a565b60006020819052908152604090205481565b34801561021957600080fd5b506001546001600160a01b03165b6040516001600160a01b039091168152602001610167565b34801561024b57600080fd5b5061019b60045481565b34801561026157600080fd5b5061019b60055481565b34801561027757600080fd5b506101c9610286366004610d19565b6105b0565b6101c9610299366004610d19565b61067a565b3480156102aa57600080fd5b5061019b60035481565b3480156102c057600080fd5b5061019b610808565b3480156102d557600080fd5b5061019b60065481565b3480156102eb57600080fd5b506102ff6102fa366004610d19565b610879565b604051610167959493929190610dc0565b34801561031c57600080fd5b506102ff61032b366004610d19565b61093d565b34801561033c57600080fd5b5060065461019b565b34801561035157600080fd5b506101c9610970565b34801561036657600080fd5b504761019b565b6101c9610a3d565b34801561038157600080fd5b5061019b60025481565b34801561039757600080fd5b5060035461019b565b3480156103ac57600080fd5b50600154610227906001600160a01b031681565b6060600780546103cf90610e53565b80601f01602080910402602001604051908101604052809291908181526020018280546103fb90610e53565b80156104485780601f1061041d57610100808354040283529160200191610448565b820191906000526020600020905b81548152906001019060200180831161042b57829003601f168201915b5050505050905090565b6007805461045f90610e53565b80601f016020809104026020016040519081016040528092919081815260200182805461048b90610e53565b80156104d85780601f106104ad576101008083540402835291602001916104d8565b820191906000526020600020905b8154815290600101906020018083116104bb57829003601f168201915b505050505081565b6001546001600160a01b031633146104f757600080fd5b600a8054600091600b9183918261050d83610e8e565b909155508152602080820192909252604001600020855190925061053691839190870190610b81565b506001810180546001600160a01b0319166001600160a01b038516179055600281018290556000600382015560048101805460ff191690556040517f5392bd80651676ccaaedec1afbe841d47e369223df0ba1586110b6426ee87a3a906105a290869086908690610d92565b60405180910390a150505050565b6000818152600b6020908152604080832033845291839052909120546106115760405162461bcd60e51b81526020600482015260116024820152702737ba10309031b7b73a3934b13aba37b960791b60448201526064015b60405180910390fd5b33600090815260058201602052604090205460ff161561063057600080fd5b3360009081526005820160205260408120805460ff191660011790556003820180549161065c83610e8e565b90915550506008805490600061067183610e8e565b91905055505050565b6001546001600160a01b0316331461069157600080fd5b6000818152600b60205260409020600481015460ff16156106b157600080fd5b600280546106bf9190610e1a565b81600301541161071d5760405162461bcd60e51b815260206004820152602360248201527f54686973207265717565737420646f65736e7420686176652061206d616a6f7260448201526269747960e81b6064820152608401610608565b478160020154106107655760405162461bcd60e51b8152602060048201526012602482015271496e73756666696369656e742066756e647360701b6044820152606401610608565b600181015460028201546040516001600160a01b039092169181156108fc0291906000818181858888f193505050501580156107a5573d6000803e3d6000fd5b5060048101805460ff191660019081179091558101546002820154604080516001600160a01b03909316835260208301919091527f516e1673e5e85c44620165259173329adda2ad25e7bb15020c732be060b5b790910160405180910390a15050565b600080426004546108199190610e3c565b116108665760405162461bcd60e51b815260206004820152601860248201527f5468697320436f6e7472616374206973206578706972656400000000000000006044820152606401610608565b426004546108749190610e3c565b905090565b600b6020526000908152604090208054819061089490610e53565b80601f01602080910402602001604051908101604052809291908181526020018280546108c090610e53565b801561090d5780601f106108e25761010080835404028352916020019161090d565b820191906000526020600020905b8154815290600101906020018083116108f057829003601f168201915b5050505060018301546002840154600385015460049095015493946001600160a01b039092169390925060ff1685565b600c818154811061094d57600080fd5b906000526020600020906006020160009150905080600001805461089490610e53565b60045442116109c15760405162461bcd60e51b815260206004820152601d60248201527f5468652070726f6a656374206973207374696c6c206f6e20676f696e670000006044820152606401610608565b600654600554116109d157600080fd5b336000908152602081905260409020546109ea57600080fd5b336000818152602081905260408082205490519091839183156108fc0291849190818181858888f19350505050158015610a28573d6000803e3d6000fd5b50503360009081526020819052604081205550565b6004544210610a8e5760405162461bcd60e51b815260206004820152601b60248201527f546869732066756e6472616973657220686173206578706972656400000000006044820152606401610608565b600354341015610ae05760405162461bcd60e51b815260206004820181905260248201527f436f6e747269627574696f6e20616d6f756e7420697320746f6f206c657373206044820152606401610608565b33600090815260208190526040902054610b0a5760028054906000610b0483610e8e565b91905055505b3360009081526020819052604081208054349290610b29908490610e02565b925050819055503460066000828254610b429190610e02565b9091555050604080513381523460208201527f2daf61dec57a2c194e9e87958b1a40a5c236b5e8c6041655d664ddbd16c29320910160405180910390a1565b828054610b8d90610e53565b90600052602060002090601f016020900481019282610baf5760008555610bf5565b82601f10610bc857805160ff1916838001178555610bf5565b82800160010185558215610bf5579182015b82811115610bf5578251825591602001919060010190610bda565b50610c01929150610c05565b5090565b5b80821115610c015760008155600101610c06565b8035610c2581610ed5565b919050565b600060208284031215610c3c57600080fd5b8135610c4781610ed5565b9392505050565b600080600060608486031215610c6357600080fd5b833567ffffffffffffffff80821115610c7b57600080fd5b818601915086601f830112610c8f57600080fd5b813581811115610ca157610ca1610ebf565b604051601f8201601f19908116603f01168101908382118183101715610cc957610cc9610ebf565b81604052828152896020848701011115610ce257600080fd5b826020860160208301376000602084830101528097505050505050610d0960208501610c1a565b9150604084013590509250925092565b600060208284031215610d2b57600080fd5b5035919050565b6000815180845260005b81811015610d5857602081850181015186830182015201610d3c565b81811115610d6a576000602083870101525b50601f01601f19169290920160200192915050565b602081526000610c476020830184610d32565b606081526000610da56060830186610d32565b6001600160a01b039490941660208301525060400152919050565b60a081526000610dd360a0830188610d32565b6001600160a01b0396909616602083015250604081019390935260608301919091521515608090910152919050565b60008219821115610e1557610e15610ea9565b500190565b600082610e3757634e487b7160e01b600052601260045260246000fd5b500490565b600082821015610e4e57610e4e610ea9565b500390565b600181811c90821680610e6757607f821691505b60208210811415610e8857634e487b7160e01b600052602260045260246000fd5b50919050565b6000600019821415610ea257610ea2610ea9565b5060010190565b634e487b7160e01b600052601160045260246000fd5b634e487b7160e01b600052604160045260246000fd5b6001600160a01b0381168114610eea57600080fd5b5056fea264697066735822122054e6d19d6d27bd303fda1339b485e2568b880e3fca925798bf2c7baea395d93b64736f6c63430008070033",
  "immutableReferences": {},
  "source": "pragma solidity^0.8.1;\r\n\r\nimport \"./Pitch.sol\";\r\n\r\ncontract Fundraising{\r\n    \r\n   \r\n    mapping(address => uint) public contributors;\r\n    address public admin;\r\n    uint public totalContributors;\r\n    uint public minimumAcceptingContribution;\r\n    uint public deadline; //getting a timestamp//\r\n    uint public goal;\r\n    uint public amountRaised;\r\n    string public name;\r\n    uint public totalVotes;\r\n    \r\n    Pitch parentContract;\r\n    \r\n    \r\n    constructor (Pitch _parentContract, string memory _identifier,  uint _goal, uint _deadline, uint _minimumAcceptingContribution, address _owner){\r\n        name = _identifier;\r\n        goal = _goal;\r\n        deadline = (block.timestamp + _deadline);\r\n        minimumAcceptingContribution = _minimumAcceptingContribution;\r\n        admin = _owner;\r\n        parentContract = _parentContract;\r\n        \r\n    }\r\n \r\n    \r\n    modifier onlyOwner(){\r\n        require(msg.sender == admin);\r\n        _;\r\n        \r\n    }\r\n    \r\n    \r\n    struct Request{\r\n        string description;\r\n        address payable receipient;\r\n        uint value;\r\n        uint noOfVoters;\r\n        bool completed;\r\n        mapping(address => bool) voters;\r\n    }\r\n    \r\n    uint newrequests;\r\n    mapping(uint => Request) public requests;\r\n    Request [] public requestlist;\r\n    \r\n    event ContributeEvent(address sender, uint value);\r\n    event CreateRequestEvent(string _description, address _recipient, uint _value);\r\n    event MakePaymentEvent(address recipient, uint value);\r\n    \r\n    \r\n    function acceptsUntil() public view returns(uint){\r\n         require(deadline - block.timestamp > 0, \"This Contract is expired\");\r\n         return deadline - block.timestamp;\r\n    }\r\n    \r\n    function contribute() public payable{\r\n        require(block.timestamp < deadline, \"This fundraiser has expired\");\r\n        require(msg.value >= minimumAcceptingContribution,\"Contribution amount is too less \");\r\n        \r\n        if(contributors[msg.sender] == 0){\r\n            totalContributors++;\r\n        }\r\n        \r\n        contributors[msg.sender] += msg.value;\r\n        amountRaised += msg.value;\r\n        \r\n        emit ContributeEvent(msg.sender, msg.value);\r\n    }\r\n    \r\n    function currentBalance()public view returns(uint){\r\n        uint bal = address(this).balance;\r\n        return bal;\r\n    } \r\n    \r\n    function getRefund()  public {\r\n        require(block.timestamp > deadline,\"The project is still on going\");\r\n        require(goal > amountRaised);\r\n        require(contributors[msg.sender] > 0);\r\n        \r\n        address payable recipient = payable(msg.sender);\r\n        uint value = contributors[msg.sender];\r\n        recipient.transfer(value);\r\n        contributors[msg.sender] = 0;\r\n        \r\n        \r\n    }\r\n    \r\n    function createRequest(string memory _description,address payable _recipient ,uint _value) public onlyOwner{\r\n        Request storage newRequest = requests[newrequests++];\r\n        newRequest.description = _description;\r\n        newRequest.receipient = _recipient;\r\n        newRequest.value = _value;\r\n        newRequest.noOfVoters = 0;\r\n        newRequest.completed = false;\r\n    \r\n        emit CreateRequestEvent(_description, _recipient ,_value);\r\n      }\r\n      \r\n    function voteRequest(uint _index)public{\r\n        Request storage thisRequest = requests[_index];\r\n        require(contributors[msg.sender] > 0  ,\"Not a contributor\");\r\n        require(thisRequest.voters[msg.sender] == false);\r\n        \r\n        thisRequest.voters[msg.sender] = true;\r\n        thisRequest.noOfVoters++;\r\n        totalVotes++;\r\n        \r\n    }\r\n    \r\n    function makePayment(uint _index)payable public onlyOwner{\r\n        Request storage thisRequest = requests[_index];\r\n        require(thisRequest.completed == false);\r\n        require(thisRequest.noOfVoters > totalContributors / 2,\"This request doesnt have a majority\");\r\n        require(thisRequest.value < address(this).balance,\"Insufficient funds\");\r\n        thisRequest.receipient.transfer(thisRequest.value);\r\n        thisRequest.completed = true;\r\n        \r\n        emit MakePaymentEvent(thisRequest.receipient, thisRequest.value);\r\n    }\r\n    \r\n    function Viewprojectname() public view returns(string memory){\r\n        return name;\r\n    }\r\n    \r\n     function thegoal() public view returns(uint){\r\n        return goal;\r\n    }\r\n    \r\n     function minimumAccepting() public view returns(uint){\r\n        return minimumAcceptingContribution;\r\n    }\r\n    \r\n     function seeowner() public view returns(address){\r\n        return admin;\r\n    }\r\n    \r\n      function amounttill() public view returns(uint){\r\n        return amountRaised;\r\n    }\r\n}",
  "sourcePath": "C:\\Users\\Amey\\Desktop\\TachyonBoostreact\\contracts\\Fundraising.sol",
  "compiler": {
    "name": "solc",
    "version": "0.8.7+commit.e28d00a7.Emscripten.clang"
  },
  "schemaVersion": "3.4.3",
  "updatedAt": "2021-09-24T15:27:26.602Z",
  "networkType": "ethereum",
  "devdoc": {
    "kind": "dev",
    "methods": {},
    "version": 1
  },
  "userdoc": {
    "kind": "user",
    "methods": {},
    "version": 1
  }
}