{
  "contractName": "Pitch",
  "abi": [
    {
      "inputs": [
        {
          "internalType": "address",
          "name": "adminaddress",
          "type": "address"
        }
      ],
      "stateMutability": "nonpayable",
      "type": "constructor"
    },
    {
      "anonymous": false,
      "inputs": [
        {
          "indexed": false,
          "internalType": "uint256",
          "name": "_projectindex",
          "type": "uint256"
        },
        {
          "indexed": false,
          "internalType": "uint256",
          "name": "deadline",
          "type": "uint256"
        },
        {
          "indexed": false,
          "internalType": "address",
          "name": "_address",
          "type": "address"
        }
      ],
      "name": "PhaseStart",
      "type": "event"
    },
    {
      "inputs": [],
      "name": "EligibleHold",
      "outputs": [
        {
          "internalType": "uint256",
          "name": "",
          "type": "uint256"
        }
      ],
      "stateMutability": "view",
      "type": "function",
      "constant": true
    },
    {
      "inputs": [],
      "name": "admin",
      "outputs": [
        {
          "internalType": "address",
          "name": "",
          "type": "address"
        }
      ],
      "stateMutability": "view",
      "type": "function",
      "constant": true
    },
    {
      "inputs": [],
      "name": "balance",
      "outputs": [
        {
          "internalType": "uint256",
          "name": "",
          "type": "uint256"
        }
      ],
      "stateMutability": "view",
      "type": "function",
      "constant": true
    },
    {
      "inputs": [],
      "name": "currentFee",
      "outputs": [
        {
          "internalType": "uint256",
          "name": "",
          "type": "uint256"
        }
      ],
      "stateMutability": "view",
      "type": "function",
      "constant": true
    },
    {
      "inputs": [],
      "name": "name",
      "outputs": [
        {
          "internalType": "string",
          "name": "",
          "type": "string"
        }
      ],
      "stateMutability": "view",
      "type": "function",
      "constant": true
    },
    {
      "inputs": [
        {
          "internalType": "uint256",
          "name": "",
          "type": "uint256"
        }
      ],
      "name": "projects",
      "outputs": [
        {
          "internalType": "contract Fundraising",
          "name": "_fundraiser",
          "type": "address"
        },
        {
          "internalType": "string",
          "name": "identifier",
          "type": "string"
        },
        {
          "internalType": "uint256",
          "name": "goal",
          "type": "uint256"
        },
        {
          "internalType": "uint256",
          "name": "deadline",
          "type": "uint256"
        },
        {
          "internalType": "uint256",
          "name": "minimumAcceptingContribution",
          "type": "uint256"
        },
        {
          "internalType": "address",
          "name": "_owner",
          "type": "address"
        }
      ],
      "stateMutability": "view",
      "type": "function",
      "constant": true
    },
    {
      "inputs": [],
      "name": "tac",
      "outputs": [
        {
          "internalType": "contract IERC20",
          "name": "",
          "type": "address"
        }
      ],
      "stateMutability": "view",
      "type": "function",
      "constant": true
    },
    {
      "inputs": [
        {
          "internalType": "string",
          "name": "_identifier",
          "type": "string"
        },
        {
          "internalType": "uint256",
          "name": "_goal",
          "type": "uint256"
        },
        {
          "internalType": "uint256",
          "name": "_deadline",
          "type": "uint256"
        },
        {
          "internalType": "uint256",
          "name": "_minimumAcceptingContribution",
          "type": "uint256"
        },
        {
          "internalType": "address",
          "name": "_owner",
          "type": "address"
        }
      ],
      "name": "Pay",
      "outputs": [],
      "stateMutability": "payable",
      "type": "function",
      "payable": true
    },
    {
      "inputs": [
        {
          "internalType": "uint256",
          "name": "tokens",
          "type": "uint256"
        }
      ],
      "name": "Eligibility",
      "outputs": [],
      "stateMutability": "nonpayable",
      "type": "function"
    },
    {
      "inputs": [
        {
          "internalType": "address",
          "name": "caller",
          "type": "address"
        }
      ],
      "name": "balanceTAC",
      "outputs": [
        {
          "internalType": "uint256",
          "name": "",
          "type": "uint256"
        }
      ],
      "stateMutability": "view",
      "type": "function",
      "constant": true
    },
    {
      "inputs": [],
      "name": "seeAdmin",
      "outputs": [
        {
          "internalType": "address",
          "name": "",
          "type": "address"
        }
      ],
      "stateMutability": "view",
      "type": "function",
      "constant": true
    },
    {
      "inputs": [],
      "name": "BoostedProjects",
      "outputs": [
        {
          "internalType": "address[]",
          "name": "",
          "type": "address[]"
        }
      ],
      "stateMutability": "view",
      "type": "function",
      "constant": true
    }
  ],
  "bytecode": "0x608060405234801561001057600080fd5b50604051611d52380380611d5283398101604081905261002f91610054565b600480546001600160a01b0319166001600160a01b0392909216919091179055610084565b60006020828403121561006657600080fd5b81516001600160a01b038116811461007d57600080fd5b9392505050565b611cbf806100936000396000f3fe608060405260043610620000b55760003560e01c806366cce10b116200006c57806366cce10b14620001c7578063878e6d1f14620001de578063a775248a1462000205578063b69ef8a8146200022a578063da3c300d1462000242578063f851a440146200025a57600080fd5b806306fdde0314620000ba578063107046bd14620000ea5780633823e15814620001235780634dde050a146200014a5780634ef067e6146200017e5780636284e39614620001a5575b600080fd5b348015620000c757600080fd5b50620000d26200027c565b604051620000e1919062000993565b60405180910390f35b348015620000f757600080fd5b506200010f6200010936600462000874565b62000312565b604051620000e19695949392919062000947565b3480156200013057600080fd5b506200013b60025481565b604051908152602001620000e1565b3480156200015757600080fd5b506004546001600160a01b03165b6040516001600160a01b039091168152602001620000e1565b3480156200018b57600080fd5b50620001a36200019d36600462000874565b620003eb565b005b348015620001b257600080fd5b5060055462000165906001600160a01b031681565b620001a3620001d836600462000789565b62000408565b348015620001eb57600080fd5b50620001f6620005a7565b604051620000e19190620008f8565b3480156200021257600080fd5b506200013b6200022436600462000764565b6200060b565b3480156200023757600080fd5b506200013b60035481565b3480156200024f57600080fd5b506200013b60015481565b3480156200026757600080fd5b5060045462000165906001600160a01b031681565b600080546200028b90620009c3565b80601f0160208091040260200160405190810160405280929190818152602001828054620002b990620009c3565b80156200030a5780601f10620002de576101008083540402835291602001916200030a565b820191906000526020600020905b815481529060010190602001808311620002ec57829003601f168201915b505050505081565b600760205260009081526040902080546001820180546001600160a01b0390921692916200034090620009c3565b80601f01602080910402602001604051908101604052809291908181526020018280546200036e90620009c3565b8015620003bf5780601f106200039357610100808354040283529160200191620003bf565b820191906000526020600020905b815481529060010190602001808311620003a157829003601f168201915b50505050600283015460038401546004850154600590950154939491939092506001600160a01b031686565b6004546001600160a01b031633146200040357600080fd5b600255565b60003086868686866040516200041e9062000693565b6200042f9695949392919062000947565b604051809103906000f0801580156200044c573d6000803e3d6000fd5b50600854600090815260076020908152604090912088519293506200047a92600190910191890190620006a1565b506008805460009081526007602052604080822080546001600160a01b0319166001600160a01b0386161790559154815220600201859055620004be8442620009a8565b60088054600090815260076020908152604080832060039081019590955583548352808320600401889055925480835291839020909301548251918252928101929092526001600160a01b03831682820152517fc3c3361e2d6cbf98943b859efeb288a37ba06b423736e887ab73c18d7e3700d29181900360600190a16006805460018101825560009182527ff652222313e28459528d920b65115c16c04f3efc82aaedc97be59f3f377c0d3f0180546001600160a01b0319166001600160a01b038416179055600880548392909190620005998362000a00565b909155505050505050505050565b606060068054806020026020016040519081016040528092919081815260200182805480156200060157602002820191906000526020600020905b81546001600160a01b03168152600190910190602001808311620005e2575b5050505050905090565b6005546040516370a0823160e01b81526001600160a01b03838116600483015260009216906370a082319060240160206040518083038186803b1580156200065257600080fd5b505afa15801562000667573d6000803e3d6000fd5b505050506040513d601f19601f820116820180604052508101906200068d91906200088e565b92915050565b61123f8062000a4b83390190565b828054620006af90620009c3565b90600052602060002090601f016020900481019282620006d357600085556200071e565b82601f10620006ee57805160ff19168380011785556200071e565b828001600101855582156200071e579182015b828111156200071e57825182559160200191906001019062000701565b506200072c92915062000730565b5090565b5b808211156200072c576000815560010162000731565b80356001600160a01b03811681146200075f57600080fd5b919050565b6000602082840312156200077757600080fd5b620007828262000747565b9392505050565b600080600080600060a08688031215620007a257600080fd5b853567ffffffffffffffff80821115620007bb57600080fd5b818801915088601f830112620007d057600080fd5b813581811115620007e557620007e562000a34565b604051601f8201601f19908116603f0116810190838211818310171562000810576200081062000a34565b816040528281528b60208487010111156200082a57600080fd5b826020860160208301376000602084830101528099505050505050602086013593506040860135925060608601359150620008686080870162000747565b90509295509295909350565b6000602082840312156200088757600080fd5b5035919050565b600060208284031215620008a157600080fd5b5051919050565b6000815180845260005b81811015620008d057602081850181015186830182015201620008b2565b81811115620008e3576000602083870101525b50601f01601f19169290920160200192915050565b6020808252825182820181905260009190848201906040850190845b818110156200093b5783516001600160a01b03168352928401929184019160010162000914565b50909695505050505050565b600060018060a01b03808916835260c060208401526200096b60c0840189620008a8565b915086604084015285606084015284608084015280841660a084015250979650505050505050565b602081526000620007826020830184620008a8565b60008219821115620009be57620009be62000a1e565b500190565b600181811c90821680620009d857607f821691505b60208210811415620009fa57634e487b7160e01b600052602260045260246000fd5b50919050565b600060001982141562000a175762000a1762000a1e565b5060010190565b634e487b7160e01b600052601160045260246000fd5b634e487b7160e01b600052604160045260246000fdfe60806040523480156200001157600080fd5b506040516200123f3803806200123f833981016040819052620000349162000156565b8451620000499060079060208801906200009e565b5060058490556200005b834262000279565b600455600391909155600180546001600160a01b039283166001600160a01b0319918216179091556009805496909216951694909417909355506200030c915050565b828054620000ac90620002a0565b90600052602060002090601f016020900481019282620000d057600085556200011b565b82601f10620000eb57805160ff19168380011785556200011b565b828001600101855582156200011b579182015b828111156200011b578251825591602001919060010190620000fe565b50620001299291506200012d565b5090565b5b808211156200012957600081556001016200012e565b80516200015181620002f3565b919050565b60008060008060008060c087890312156200017057600080fd5b86516200017d81620002f3565b602088810151919750906001600160401b03808211156200019d57600080fd5b818a0191508a601f830112620001b257600080fd5b815181811115620001c757620001c7620002dd565b604051601f8201601f19908116603f01168101908382118183101715620001f257620001f2620002dd565b816040528281528d868487010111156200020b57600080fd5b600093505b828410156200022f578484018601518185018701529285019262000210565b82841115620002415760008684830101525b809a505050505050506040870151935060608701519250608087015191506200026d60a0880162000144565b90509295509295509295565b600082198211156200029b57634e487b7160e01b600052601160045260246000fd5b500190565b600181811c90821680620002b557607f821691505b60208210811415620002d757634e487b7160e01b600052602260045260246000fd5b50919050565b634e487b7160e01b600052604160045260246000fd5b6001600160a01b03811681146200030957600080fd5b50565b610f23806200031c6000396000f3fe6080604052600436106101405760003560e01c806352376c6e116100b6578063b2d5ae441161006f578063b2d5ae4414610345578063ce845d1d1461035a578063d7bb99ba1461036d578063f251fc8c14610375578063f6c709141461038b578063f851a440146103a057600080fd5b806352376c6e1461029e5780635aae6522146102b45780637b3e5e7b146102c957806381d12c58146102df5780638e9eb45f14610310578063a058d0fd1461033057600080fd5b80631f6d4942116101085780631f6d4942146101e05780632807b4a31461020d57806329dcb0cf1461023f57806340193883146102555780634cb6f4a51461026b5780635114cb521461028b57600080fd5b80630665ab701461014557806306fdde03146101705780630d15fd77146101855780631b16bb5c146101a95780631c8dc67e146101cb575b600080fd5b34801561015157600080fd5b5061015a6103c0565b6040516101679190610d7f565b60405180910390f35b34801561017c57600080fd5b5061015a610452565b34801561019157600080fd5b5061019b60085481565b604051908152602001610167565b3480156101b557600080fd5b506101c96101c4366004610c4e565b6104e0565b005b3480156101d757600080fd5b5060055461019b565b3480156101ec57600080fd5b5061019b6101fb366004610c2a565b60006020819052908152604090205481565b34801561021957600080fd5b506001546001600160a01b03165b6040516001600160a01b039091168152602001610167565b34801561024b57600080fd5b5061019b60045481565b34801561026157600080fd5b5061019b60055481565b34801561027757600080fd5b506101c9610286366004610d19565b6105b0565b6101c9610299366004610d19565b61067a565b3480156102aa57600080fd5b5061019b60035481565b3480156102c057600080fd5b5061019b610808565b3480156102d557600080fd5b5061019b60065481565b3480156102eb57600080fd5b506102ff6102fa366004610d19565b610879565b604051610167959493929190610dc0565b34801561031c57600080fd5b506102ff61032b366004610d19565b61093d565b34801561033c57600080fd5b5060065461019b565b34801561035157600080fd5b506101c9610970565b34801561036657600080fd5b504761019b565b6101c9610a3d565b34801561038157600080fd5b5061019b60025481565b34801561039757600080fd5b5060035461019b565b3480156103ac57600080fd5b50600154610227906001600160a01b031681565b6060600780546103cf90610e53565b80601f01602080910402602001604051908101604052809291908181526020018280546103fb90610e53565b80156104485780601f1061041d57610100808354040283529160200191610448565b820191906000526020600020905b81548152906001019060200180831161042b57829003601f168201915b5050505050905090565b6007805461045f90610e53565b80601f016020809104026020016040519081016040528092919081815260200182805461048b90610e53565b80156104d85780601f106104ad576101008083540402835291602001916104d8565b820191906000526020600020905b8154815290600101906020018083116104bb57829003601f168201915b505050505081565b6001546001600160a01b031633146104f757600080fd5b600a8054600091600b9183918261050d83610e8e565b909155508152602080820192909252604001600020855190925061053691839190870190610b81565b506001810180546001600160a01b0319166001600160a01b038516179055600281018290556000600382015560048101805460ff191690556040517f5392bd80651676ccaaedec1afbe841d47e369223df0ba1586110b6426ee87a3a906105a290869086908690610d92565b60405180910390a150505050565b6000818152600b6020908152604080832033845291839052909120546106115760405162461bcd60e51b81526020600482015260116024820152702737ba10309031b7b73a3934b13aba37b960791b60448201526064015b60405180910390fd5b33600090815260058201602052604090205460ff161561063057600080fd5b3360009081526005820160205260408120805460ff191660011790556003820180549161065c83610e8e565b90915550506008805490600061067183610e8e565b91905055505050565b6001546001600160a01b0316331461069157600080fd5b6000818152600b60205260409020600481015460ff16156106b157600080fd5b600280546106bf9190610e1a565b81600301541161071d5760405162461bcd60e51b815260206004820152602360248201527f54686973207265717565737420646f65736e7420686176652061206d616a6f7260448201526269747960e81b6064820152608401610608565b478160020154106107655760405162461bcd60e51b8152602060048201526012602482015271496e73756666696369656e742066756e647360701b6044820152606401610608565b600181015460028201546040516001600160a01b039092169181156108fc0291906000818181858888f193505050501580156107a5573d6000803e3d6000fd5b5060048101805460ff191660019081179091558101546002820154604080516001600160a01b03909316835260208301919091527f516e1673e5e85c44620165259173329adda2ad25e7bb15020c732be060b5b790910160405180910390a15050565b600080426004546108199190610e3c565b116108665760405162461bcd60e51b815260206004820152601860248201527f5468697320436f6e7472616374206973206578706972656400000000000000006044820152606401610608565b426004546108749190610e3c565b905090565b600b6020526000908152604090208054819061089490610e53565b80601f01602080910402602001604051908101604052809291908181526020018280546108c090610e53565b801561090d5780601f106108e25761010080835404028352916020019161090d565b820191906000526020600020905b8154815290600101906020018083116108f057829003601f168201915b5050505060018301546002840154600385015460049095015493946001600160a01b039092169390925060ff1685565b600c818154811061094d57600080fd5b906000526020600020906006020160009150905080600001805461089490610e53565b60045442116109c15760405162461bcd60e51b815260206004820152601d60248201527f5468652070726f6a656374206973207374696c6c206f6e20676f696e670000006044820152606401610608565b600654600554116109d157600080fd5b336000908152602081905260409020546109ea57600080fd5b336000818152602081905260408082205490519091839183156108fc0291849190818181858888f19350505050158015610a28573d6000803e3d6000fd5b50503360009081526020819052604081205550565b6004544210610a8e5760405162461bcd60e51b815260206004820152601b60248201527f546869732066756e6472616973657220686173206578706972656400000000006044820152606401610608565b600354341015610ae05760405162461bcd60e51b815260206004820181905260248201527f436f6e747269627574696f6e20616d6f756e7420697320746f6f206c657373206044820152606401610608565b33600090815260208190526040902054610b0a5760028054906000610b0483610e8e565b91905055505b3360009081526020819052604081208054349290610b29908490610e02565b925050819055503460066000828254610b429190610e02565b9091555050604080513381523460208201527f2daf61dec57a2c194e9e87958b1a40a5c236b5e8c6041655d664ddbd16c29320910160405180910390a1565b828054610b8d90610e53565b90600052602060002090601f016020900481019282610baf5760008555610bf5565b82601f10610bc857805160ff1916838001178555610bf5565b82800160010185558215610bf5579182015b82811115610bf5578251825591602001919060010190610bda565b50610c01929150610c05565b5090565b5b80821115610c015760008155600101610c06565b8035610c2581610ed5565b919050565b600060208284031215610c3c57600080fd5b8135610c4781610ed5565b9392505050565b600080600060608486031215610c6357600080fd5b833567ffffffffffffffff80821115610c7b57600080fd5b818601915086601f830112610c8f57600080fd5b813581811115610ca157610ca1610ebf565b604051601f8201601f19908116603f01168101908382118183101715610cc957610cc9610ebf565b81604052828152896020848701011115610ce257600080fd5b826020860160208301376000602084830101528097505050505050610d0960208501610c1a565b9150604084013590509250925092565b600060208284031215610d2b57600080fd5b5035919050565b6000815180845260005b81811015610d5857602081850181015186830182015201610d3c565b81811115610d6a576000602083870101525b50601f01601f19169290920160200192915050565b602081526000610c476020830184610d32565b606081526000610da56060830186610d32565b6001600160a01b039490941660208301525060400152919050565b60a081526000610dd360a0830188610d32565b6001600160a01b0396909616602083015250604081019390935260608301919091521515608090910152919050565b60008219821115610e1557610e15610ea9565b500190565b600082610e3757634e487b7160e01b600052601260045260246000fd5b500490565b600082821015610e4e57610e4e610ea9565b500390565b600181811c90821680610e6757607f821691505b60208210811415610e8857634e487b7160e01b600052602260045260246000fd5b50919050565b6000600019821415610ea257610ea2610ea9565b5060010190565b634e487b7160e01b600052601160045260246000fd5b634e487b7160e01b600052604160045260246000fd5b6001600160a01b0381168114610eea57600080fd5b5056fea264697066735822122054e6d19d6d27bd303fda1339b485e2568b880e3fca925798bf2c7baea395d93b64736f6c63430008070033a264697066735822122044b899b058cf86dae9c56ecdec5c92e1203daa1accfa03a663d5124f8708c66464736f6c63430008070033",
  "immutableReferences": {},
  "source": "pragma solidity^0.8.1;\r\n\r\nimport \"./Fundraising.sol\";\r\nimport \"./Tachyontoken.sol\";\r\n\r\ncontract Pitch {\r\n    \r\n    string public name;\r\n  \r\n    uint  public currentFee;\r\n    uint  public EligibleHold;\r\n    uint  public balance;\r\n    address public admin;\r\n    IERC20  public tac;\r\n    \r\n    address [] projectlist;\r\n    \r\n    event PhaseStart(uint _projectindex, uint deadline, address _address);\r\n    \r\n    struct Project{\r\n    Fundraising _fundraiser;\r\n    string identifier;\r\n    uint   goal;\r\n    uint   deadline;\r\n    uint   minimumAcceptingContribution;\r\n    address  _owner;\r\n        \r\n    }\r\n    \r\n    mapping(uint => Project) public projects;\r\n    uint index;\r\n    \r\n    // ,address tacAddress\r\n    constructor(address adminaddress ) { \r\n        admin = adminaddress;\r\n        // tac = IERC20(tacAddress);\r\n    }\r\n    \r\n    modifier onlyOwner(){\r\n        require(msg.sender == admin);\r\n        _;\r\n        \r\n    }\r\n    \r\n    function Pay(string memory _identifier ,uint _goal, uint _deadline , uint _minimumAcceptingContribution, address _owner) public payable  {\r\n        // require(tac.balanceOf(msg.sender) >= EligibleHold, \"Insufficeint TAC\");\r\n        Fundraising fundraiser = new Fundraising(this, _identifier, _goal, _deadline, _minimumAcceptingContribution, _owner);\r\n        projects[index].identifier = _identifier;\r\n        projects[index]._fundraiser = fundraiser;\r\n        projects[index].goal = _goal;\r\n        projects[index].deadline = block.timestamp + _deadline;\r\n        projects[index].minimumAcceptingContribution = _minimumAcceptingContribution;\r\n        emit PhaseStart(index, uint(projects[index].deadline), address(fundraiser));\r\n        address newProject = address(fundraiser);\r\n        projectlist.push(newProject);\r\n        index++;\r\n        \r\n      \r\n        \r\n        _owner = msg.sender;\r\n    }\r\n    \r\n    function Eligibility(uint tokens)public onlyOwner{\r\n        EligibleHold = tokens;\r\n    }\r\n    \r\n    function balanceTAC(address caller) public view returns(uint){\r\n      return tac.balanceOf(caller);\r\n    }\r\n    \r\n    \r\n    function seeAdmin() public view returns(address){\r\n        return admin;\r\n        \r\n    }\r\n    \r\n    function BoostedProjects() public view returns(address [] memory){\r\n        return projectlist;\r\n    }\r\n\r\n    \r\n}",
  "sourcePath": "C:\\Users\\Amey\\Desktop\\TachyonBoostreact\\contracts\\Pitch.sol",
  "compiler": {
    "name": "solc",
    "version": "0.8.7+commit.e28d00a7.Emscripten.clang"
  },
  "schemaVersion": "3.4.3",
  "updatedAt": "2021-09-24T15:27:26.590Z",
  "networkType": "ethereum",
  "devdoc": {
    "kind": "dev",
    "methods": {},
    "version": 1
  },
  "userdoc": {
    "kind": "user",
    "methods": {},
    "version": 1
  }
}